{
  "_format": "hh-sol-artifact-1",
  "contractName": "Collection",
  "sourceName": "contracts/Collection.sol",
  "abi": [
    {
      "inputs": [],
      "stateMutability": "nonpayable",
      "type": "constructor"
    },
    {
      "anonymous": false,
      "inputs": [
        {
          "indexed": true,
          "internalType": "address",
          "name": "owner",
          "type": "address"
        },
        {
          "indexed": true,
          "internalType": "address",
          "name": "approved",
          "type": "address"
        },
        {
          "indexed": true,
          "internalType": "uint256",
          "name": "tokenId",
          "type": "uint256"
        }
      ],
      "name": "Approval",
      "type": "event"
    },
    {
      "anonymous": false,
      "inputs": [
        {
          "indexed": true,
          "internalType": "address",
          "name": "owner",
          "type": "address"
        },
        {
          "indexed": true,
          "internalType": "address",
          "name": "operator",
          "type": "address"
        },
        {
          "indexed": false,
          "internalType": "bool",
          "name": "approved",
          "type": "bool"
        }
      ],
      "name": "ApprovalForAll",
      "type": "event"
    },
    {
      "anonymous": false,
      "inputs": [
        {
          "indexed": true,
          "internalType": "address",
          "name": "previousOwner",
          "type": "address"
        },
        {
          "indexed": true,
          "internalType": "address",
          "name": "newOwner",
          "type": "address"
        }
      ],
      "name": "OwnershipTransferred",
      "type": "event"
    },
    {
      "anonymous": false,
      "inputs": [
        {
          "indexed": true,
          "internalType": "address",
          "name": "from",
          "type": "address"
        },
        {
          "indexed": true,
          "internalType": "address",
          "name": "to",
          "type": "address"
        },
        {
          "indexed": true,
          "internalType": "uint256",
          "name": "tokenId",
          "type": "uint256"
        }
      ],
      "name": "Transfer",
      "type": "event"
    },
    {
      "inputs": [],
      "name": "LIMIT_PER_ADDRESS",
      "outputs": [
        {
          "internalType": "uint256",
          "name": "",
          "type": "uint256"
        }
      ],
      "stateMutability": "view",
      "type": "function"
    },
    {
      "inputs": [],
      "name": "MAX_SUPPLY",
      "outputs": [
        {
          "internalType": "uint256",
          "name": "",
          "type": "uint256"
        }
      ],
      "stateMutability": "view",
      "type": "function"
    },
    {
      "inputs": [],
      "name": "PRICE_PER_TOKEN",
      "outputs": [
        {
          "internalType": "uint256",
          "name": "",
          "type": "uint256"
        }
      ],
      "stateMutability": "view",
      "type": "function"
    },
    {
      "inputs": [
        {
          "internalType": "address",
          "name": "to",
          "type": "address"
        },
        {
          "internalType": "uint256",
          "name": "tokenId",
          "type": "uint256"
        }
      ],
      "name": "approve",
      "outputs": [],
      "stateMutability": "nonpayable",
      "type": "function"
    },
    {
      "inputs": [
        {
          "internalType": "address",
          "name": "owner",
          "type": "address"
        }
      ],
      "name": "balanceOf",
      "outputs": [
        {
          "internalType": "uint256",
          "name": "",
          "type": "uint256"
        }
      ],
      "stateMutability": "view",
      "type": "function"
    },
    {
      "inputs": [
        {
          "internalType": "uint256",
          "name": "tokenId",
          "type": "uint256"
        }
      ],
      "name": "getApproved",
      "outputs": [
        {
          "internalType": "address",
          "name": "",
          "type": "address"
        }
      ],
      "stateMutability": "view",
      "type": "function"
    },
    {
      "inputs": [
        {
          "internalType": "address",
          "name": "owner",
          "type": "address"
        },
        {
          "internalType": "address",
          "name": "operator",
          "type": "address"
        }
      ],
      "name": "isApprovedForAll",
      "outputs": [
        {
          "internalType": "bool",
          "name": "",
          "type": "bool"
        }
      ],
      "stateMutability": "view",
      "type": "function"
    },
    {
      "inputs": [
        {
          "internalType": "string",
          "name": "tokenURI",
          "type": "string"
        }
      ],
      "name": "mintNFT",
      "outputs": [
        {
          "internalType": "uint256",
          "name": "",
          "type": "uint256"
        }
      ],
      "stateMutability": "payable",
      "type": "function"
    },
    {
      "inputs": [],
      "name": "name",
      "outputs": [
        {
          "internalType": "string",
          "name": "",
          "type": "string"
        }
      ],
      "stateMutability": "view",
      "type": "function"
    },
    {
      "inputs": [],
      "name": "owner",
      "outputs": [
        {
          "internalType": "address",
          "name": "",
          "type": "address"
        }
      ],
      "stateMutability": "view",
      "type": "function"
    },
    {
      "inputs": [
        {
          "internalType": "uint256",
          "name": "tokenId",
          "type": "uint256"
        }
      ],
      "name": "ownerOf",
      "outputs": [
        {
          "internalType": "address",
          "name": "",
          "type": "address"
        }
      ],
      "stateMutability": "view",
      "type": "function"
    },
    {
      "inputs": [],
      "name": "renounceOwnership",
      "outputs": [],
      "stateMutability": "nonpayable",
      "type": "function"
    },
    {
      "inputs": [
        {
          "internalType": "address",
          "name": "from",
          "type": "address"
        },
        {
          "internalType": "address",
          "name": "to",
          "type": "address"
        },
        {
          "internalType": "uint256",
          "name": "tokenId",
          "type": "uint256"
        }
      ],
      "name": "safeTransferFrom",
      "outputs": [],
      "stateMutability": "nonpayable",
      "type": "function"
    },
    {
      "inputs": [
        {
          "internalType": "address",
          "name": "from",
          "type": "address"
        },
        {
          "internalType": "address",
          "name": "to",
          "type": "address"
        },
        {
          "internalType": "uint256",
          "name": "tokenId",
          "type": "uint256"
        },
        {
          "internalType": "bytes",
          "name": "data",
          "type": "bytes"
        }
      ],
      "name": "safeTransferFrom",
      "outputs": [],
      "stateMutability": "nonpayable",
      "type": "function"
    },
    {
      "inputs": [
        {
          "internalType": "address",
          "name": "operator",
          "type": "address"
        },
        {
          "internalType": "bool",
          "name": "approved",
          "type": "bool"
        }
      ],
      "name": "setApprovalForAll",
      "outputs": [],
      "stateMutability": "nonpayable",
      "type": "function"
    },
    {
      "inputs": [
        {
          "internalType": "uint256",
          "name": "limit",
          "type": "uint256"
        }
      ],
      "name": "setLimit",
      "outputs": [],
      "stateMutability": "nonpayable",
      "type": "function"
    },
    {
      "inputs": [
        {
          "internalType": "uint256",
          "name": "max_supply",
          "type": "uint256"
        }
      ],
      "name": "setMaxSupply",
      "outputs": [],
      "stateMutability": "nonpayable",
      "type": "function"
    },
    {
      "inputs": [
        {
          "internalType": "uint256",
          "name": "price",
          "type": "uint256"
        }
      ],
      "name": "setPrice",
      "outputs": [],
      "stateMutability": "nonpayable",
      "type": "function"
    },
    {
      "inputs": [
        {
          "internalType": "bytes4",
          "name": "interfaceId",
          "type": "bytes4"
        }
      ],
      "name": "supportsInterface",
      "outputs": [
        {
          "internalType": "bool",
          "name": "",
          "type": "bool"
        }
      ],
      "stateMutability": "view",
      "type": "function"
    },
    {
      "inputs": [],
      "name": "symbol",
      "outputs": [
        {
          "internalType": "string",
          "name": "",
          "type": "string"
        }
      ],
      "stateMutability": "view",
      "type": "function"
    },
    {
      "inputs": [
        {
          "internalType": "uint256",
          "name": "tokenId",
          "type": "uint256"
        }
      ],
      "name": "tokenURI",
      "outputs": [
        {
          "internalType": "string",
          "name": "",
          "type": "string"
        }
      ],
      "stateMutability": "view",
      "type": "function"
    },
    {
      "inputs": [
        {
          "internalType": "address",
          "name": "from",
          "type": "address"
        },
        {
          "internalType": "address",
          "name": "to",
          "type": "address"
        },
        {
          "internalType": "uint256",
          "name": "tokenId",
          "type": "uint256"
        }
      ],
      "name": "transferFrom",
      "outputs": [],
      "stateMutability": "nonpayable",
      "type": "function"
    },
    {
      "inputs": [
        {
          "internalType": "address",
          "name": "newOwner",
          "type": "address"
        }
      ],
      "name": "transferOwnership",
      "outputs": [],
      "stateMutability": "nonpayable",
      "type": "function"
    },
    {
      "inputs": [],
      "name": "withdrawMoney",
      "outputs": [],
      "stateMutability": "nonpayable",
      "type": "function"
    }
  ],
  "bytecode": "0x6080604052662386f26fc10000600c556002600d556005600e553480156200002657600080fd5b506040518060400160405280600a81526020017f436f6c6c656374696f6e000000000000000000000000000000000000000000008152506040518060400160405280600381526020017f4e465400000000000000000000000000000000000000000000000000000000008152508160009080519060200190620000ab929190620001bb565b508060019080519060200190620000c4929190620001bb565b505050620000e7620000db620000ed60201b60201c565b620000f560201b60201c565b620002d0565b600033905090565b6000600760009054906101000a900473ffffffffffffffffffffffffffffffffffffffff16905081600760006101000a81548173ffffffffffffffffffffffffffffffffffffffff021916908373ffffffffffffffffffffffffffffffffffffffff1602179055508173ffffffffffffffffffffffffffffffffffffffff168173ffffffffffffffffffffffffffffffffffffffff167f8be0079c531659141344cd1fd0a4f28419497f9722a3daafe3b4186f6b6457e060405160405180910390a35050565b828054620001c9906200029a565b90600052602060002090601f016020900481019282620001ed576000855562000239565b82601f106200020857805160ff191683800117855562000239565b8280016001018555821562000239579182015b82811115620002385782518255916020019190600101906200021b565b5b5090506200024891906200024c565b5090565b5b80821115620002675760008160009055506001016200024d565b5090565b7f4e487b7100000000000000000000000000000000000000000000000000000000600052602260045260246000fd5b60006002820490506001821680620002b357607f821691505b60208210811415620002ca57620002c96200026b565b5b50919050565b61333e80620002e06000396000f3fe60806040526004361061014b5760003560e01c8063715018a6116100b6578063ac4460021161006f578063ac4460021461047c578063b88d4fde14610493578063c87b56dd146104bc578063e985e9c5146104f9578063f2fde38b14610536578063fb37e8831461055f5761014b565b8063715018a614610392578063833b9499146103a95780638da5cb5b146103d457806391b7f5ed146103ff57806395d89b4114610428578063a22cb465146104535761014b565b806332cb6b0c1161010857806332cb6b0c14610270578063417bac1a1461029b57806342842e0e146102c65780636352211e146102ef5780636f8b44b01461032c57806370a08231146103555761014b565b806301ffc9a71461015057806306fdde031461018d578063081812fc146101b8578063095ea7b3146101f557806323b872dd1461021e57806327ea6f2b14610247575b600080fd5b34801561015c57600080fd5b5061017760048036038101906101729190612018565b61058f565b6040516101849190612060565b60405180910390f35b34801561019957600080fd5b506101a2610671565b6040516101af9190612114565b60405180910390f35b3480156101c457600080fd5b506101df60048036038101906101da919061216c565b610703565b6040516101ec91906121da565b60405180910390f35b34801561020157600080fd5b5061021c60048036038101906102179190612221565b610749565b005b34801561022a57600080fd5b5061024560048036038101906102409190612261565b610861565b005b34801561025357600080fd5b5061026e6004803603810190610269919061216c565b6108c1565b005b34801561027c57600080fd5b506102856108d3565b60405161029291906122c3565b60405180910390f35b3480156102a757600080fd5b506102b06108d9565b6040516102bd91906122c3565b60405180910390f35b3480156102d257600080fd5b506102ed60048036038101906102e89190612261565b6108df565b005b3480156102fb57600080fd5b506103166004803603810190610311919061216c565b6108ff565b60405161032391906121da565b60405180910390f35b34801561033857600080fd5b50610353600480360381019061034e919061216c565b6109b1565b005b34801561036157600080fd5b5061037c600480360381019061037791906122de565b6109c3565b60405161038991906122c3565b60405180910390f35b34801561039e57600080fd5b506103a7610a7b565b005b3480156103b557600080fd5b506103be610a8f565b6040516103cb91906122c3565b60405180910390f35b3480156103e057600080fd5b506103e9610a95565b6040516103f691906121da565b60405180910390f35b34801561040b57600080fd5b506104266004803603810190610421919061216c565b610abf565b005b34801561043457600080fd5b5061043d610ad1565b60405161044a9190612114565b60405180910390f35b34801561045f57600080fd5b5061047a60048036038101906104759190612337565b610b63565b005b34801561048857600080fd5b50610491610b79565b005b34801561049f57600080fd5b506104ba60048036038101906104b591906124ac565b610bd0565b005b3480156104c857600080fd5b506104e360048036038101906104de919061216c565b610c32565b6040516104f09190612114565b60405180910390f35b34801561050557600080fd5b50610520600480360381019061051b919061252f565b610d45565b60405161052d9190612060565b60405180910390f35b34801561054257600080fd5b5061055d600480360381019061055891906122de565b610dd9565b005b61057960048036038101906105749190612610565b610e5d565b60405161058691906122c3565b60405180910390f35b60007f80ac58cd000000000000000000000000000000000000000000000000000000007bffffffffffffffffffffffffffffffffffffffffffffffffffffffff1916827bffffffffffffffffffffffffffffffffffffffffffffffffffffffff1916148061065a57507f5b5e139f000000000000000000000000000000000000000000000000000000007bffffffffffffffffffffffffffffffffffffffffffffffffffffffff1916827bffffffffffffffffffffffffffffffffffffffffffffffffffffffff1916145b8061066a575061066982611108565b5b9050919050565b60606000805461068090612688565b80601f01602080910402602001604051908101604052809291908181526020018280546106ac90612688565b80156106f95780601f106106ce576101008083540402835291602001916106f9565b820191906000526020600020905b8154815290600101906020018083116106dc57829003601f168201915b5050505050905090565b600061070e82611172565b6004600083815260200190815260200160002060009054906101000a900473ffffffffffffffffffffffffffffffffffffffff169050919050565b6000610754826108ff565b90508073ffffffffffffffffffffffffffffffffffffffff168373ffffffffffffffffffffffffffffffffffffffff1614156107c5576040517f08c379a00000000000000000000000000000000000000000000000000000000081526004016107bc9061272c565b60405180910390fd5b8073ffffffffffffffffffffffffffffffffffffffff166107e46111bd565b73ffffffffffffffffffffffffffffffffffffffff16148061081357506108128161080d6111bd565b610d45565b5b610852576040517f08c379a0000000000000000000000000000000000000000000000000000000008152600401610849906127be565b60405180910390fd5b61085c83836111c5565b505050565b61087261086c6111bd565b8261127e565b6108b1576040517f08c379a00000000000000000000000000000000000000000000000000000000081526004016108a890612850565b60405180910390fd5b6108bc838383611313565b505050565b6108c961157a565b80600d8190555050565b600e5481565b600d5481565b6108fa83838360405180602001604052806000815250610bd0565b505050565b6000806002600084815260200190815260200160002060009054906101000a900473ffffffffffffffffffffffffffffffffffffffff169050600073ffffffffffffffffffffffffffffffffffffffff168173ffffffffffffffffffffffffffffffffffffffff1614156109a8576040517f08c379a000000000000000000000000000000000000000000000000000000000815260040161099f906128bc565b60405180910390fd5b80915050919050565b6109b961157a565b80600e8190555050565b60008073ffffffffffffffffffffffffffffffffffffffff168273ffffffffffffffffffffffffffffffffffffffff161415610a34576040517f08c379a0000000000000000000000000000000000000000000000000000000008152600401610a2b9061294e565b60405180910390fd5b600360008373ffffffffffffffffffffffffffffffffffffffff1673ffffffffffffffffffffffffffffffffffffffff168152602001908152602001600020549050919050565b610a8361157a565b610a8d60006115f8565b565b600c5481565b6000600760009054906101000a900473ffffffffffffffffffffffffffffffffffffffff16905090565b610ac761157a565b80600c8190555050565b606060018054610ae090612688565b80601f0160208091040260200160405190810160405280929190818152602001828054610b0c90612688565b8015610b595780601f10610b2e57610100808354040283529160200191610b59565b820191906000526020600020905b815481529060010190602001808311610b3c57829003601f168201915b5050505050905090565b610b75610b6e6111bd565b83836116be565b5050565b610b8161157a565b60003390508073ffffffffffffffffffffffffffffffffffffffff166108fc479081150290604051600060405180830381858888f19350505050158015610bcc573d6000803e3d6000fd5b5050565b610be1610bdb6111bd565b8361127e565b610c20576040517f08c379a0000000000000000000000000000000000000000000000000000000008152600401610c1790612850565b60405180910390fd5b610c2c8484848461182b565b50505050565b6060610c3d82611172565b6000600660008481526020019081526020016000208054610c5d90612688565b80601f0160208091040260200160405190810160405280929190818152602001828054610c8990612688565b8015610cd65780601f10610cab57610100808354040283529160200191610cd6565b820191906000526020600020905b815481529060010190602001808311610cb957829003601f168201915b505050505090506000610ce7611887565b9050600081511415610cfd578192505050610d40565b600082511115610d32578082604051602001610d1a9291906129aa565b60405160208183030381529060405292505050610d40565b610d3b8461189e565b925050505b919050565b6000600560008473ffffffffffffffffffffffffffffffffffffffff1673ffffffffffffffffffffffffffffffffffffffff16815260200190815260200160002060008373ffffffffffffffffffffffffffffffffffffffff1673ffffffffffffffffffffffffffffffffffffffff16815260200190815260200160002060009054906101000a900460ff16905092915050565b610de161157a565b600073ffffffffffffffffffffffffffffffffffffffff168173ffffffffffffffffffffffffffffffffffffffff161415610e51576040517f08c379a0000000000000000000000000000000000000000000000000000000008152600401610e4890612a40565b60405180910390fd5b610e5a816115f8565b50565b600034600c541115610ea4576040517f08c379a0000000000000000000000000000000000000000000000000000000008152600401610e9b90612aac565b60405180910390fd5b600d54600a60003373ffffffffffffffffffffffffffffffffffffffff1673ffffffffffffffffffffffffffffffffffffffff16815260200190815260200160002060009054906101000a900460ff1660ff1610610f37576040517f08c379a0000000000000000000000000000000000000000000000000000000008152600401610f2e90612b18565b60405180910390fd5b600e546001610f466009611906565b610f509190612b67565b1115610f91576040517f08c379a0000000000000000000000000000000000000000000000000000000008152600401610f8890612c09565b60405180910390fd5b6000600b83604051610fa39190612c29565b908152602001604051809103902060009054906101000a900460ff1660ff1614611002576040517f08c379a0000000000000000000000000000000000000000000000000000000008152600401610ff990612c8c565b60405180910390fd5b6001600b836040516110149190612c29565b908152602001604051809103902060008282829054906101000a900460ff1661103d9190612cb9565b92506101000a81548160ff021916908360ff1602179055506001600a60003373ffffffffffffffffffffffffffffffffffffffff1673ffffffffffffffffffffffffffffffffffffffff16815260200190815260200160002060008282829054906101000a900460ff166110b19190612cb9565b92506101000a81548160ff021916908360ff1602179055506110d36008611914565b6110dd6009611914565b60006110e96008611906565b90506110f5338261192a565b6110ff8184611b04565b80915050919050565b60007f01ffc9a7000000000000000000000000000000000000000000000000000000007bffffffffffffffffffffffffffffffffffffffffffffffffffffffff1916827bffffffffffffffffffffffffffffffffffffffffffffffffffffffff1916149050919050565b61117b81611b78565b6111ba576040517f08c379a00000000000000000000000000000000000000000000000000000000081526004016111b1906128bc565b60405180910390fd5b50565b600033905090565b816004600083815260200190815260200160002060006101000a81548173ffffffffffffffffffffffffffffffffffffffff021916908373ffffffffffffffffffffffffffffffffffffffff160217905550808273ffffffffffffffffffffffffffffffffffffffff16611238836108ff565b73ffffffffffffffffffffffffffffffffffffffff167f8c5be1e5ebec7d5bd14f71427d1e84f3dd0314c0f7b2291e5b200ac8c7c3b92560405160405180910390a45050565b60008061128a836108ff565b90508073ffffffffffffffffffffffffffffffffffffffff168473ffffffffffffffffffffffffffffffffffffffff1614806112cc57506112cb8185610d45565b5b8061130a57508373ffffffffffffffffffffffffffffffffffffffff166112f284610703565b73ffffffffffffffffffffffffffffffffffffffff16145b91505092915050565b8273ffffffffffffffffffffffffffffffffffffffff16611333826108ff565b73ffffffffffffffffffffffffffffffffffffffff1614611389576040517f08c379a000000000000000000000000000000000000000000000000000000000815260040161138090612d62565b60405180910390fd5b600073ffffffffffffffffffffffffffffffffffffffff168273ffffffffffffffffffffffffffffffffffffffff1614156113f9576040517f08c379a00000000000000000000000000000000000000000000000000000000081526004016113f090612df4565b60405180910390fd5b611404838383611be4565b61140f6000826111c5565b6001600360008573ffffffffffffffffffffffffffffffffffffffff1673ffffffffffffffffffffffffffffffffffffffff168152602001908152602001600020600082825461145f9190612e14565b925050819055506001600360008473ffffffffffffffffffffffffffffffffffffffff1673ffffffffffffffffffffffffffffffffffffffff16815260200190815260200160002060008282546114b69190612b67565b92505081905550816002600083815260200190815260200160002060006101000a81548173ffffffffffffffffffffffffffffffffffffffff021916908373ffffffffffffffffffffffffffffffffffffffff160217905550808273ffffffffffffffffffffffffffffffffffffffff168473ffffffffffffffffffffffffffffffffffffffff167fddf252ad1be2c89b69c2b068fc378daa952ba7f163c4a11628f55a4df523b3ef60405160405180910390a4611575838383611be9565b505050565b6115826111bd565b73ffffffffffffffffffffffffffffffffffffffff166115a0610a95565b73ffffffffffffffffffffffffffffffffffffffff16146115f6576040517f08c379a00000000000000000000000000000000000000000000000000000000081526004016115ed90612e94565b60405180910390fd5b565b6000600760009054906101000a900473ffffffffffffffffffffffffffffffffffffffff16905081600760006101000a81548173ffffffffffffffffffffffffffffffffffffffff021916908373ffffffffffffffffffffffffffffffffffffffff1602179055508173ffffffffffffffffffffffffffffffffffffffff168173ffffffffffffffffffffffffffffffffffffffff167f8be0079c531659141344cd1fd0a4f28419497f9722a3daafe3b4186f6b6457e060405160405180910390a35050565b8173ffffffffffffffffffffffffffffffffffffffff168373ffffffffffffffffffffffffffffffffffffffff16141561172d576040517f08c379a000000000000000000000000000000000000000000000000000000000815260040161172490612f00565b60405180910390fd5b80600560008573ffffffffffffffffffffffffffffffffffffffff1673ffffffffffffffffffffffffffffffffffffffff16815260200190815260200160002060008473ffffffffffffffffffffffffffffffffffffffff1673ffffffffffffffffffffffffffffffffffffffff16815260200190815260200160002060006101000a81548160ff0219169083151502179055508173ffffffffffffffffffffffffffffffffffffffff168373ffffffffffffffffffffffffffffffffffffffff167f17307eab39ab6107e8899845ad3d59bd9653f200f220920489ca2b5937696c318360405161181e9190612060565b60405180910390a3505050565b611836848484611313565b61184284848484611bee565b611881576040517f08c379a000000000000000000000000000000000000000000000000000000000815260040161187890612f92565b60405180910390fd5b50505050565b606060405180602001604052806000815250905090565b60606118a982611172565b60006118b3611887565b905060008151116118d357604051806020016040528060008152506118fe565b806118dd84611d85565b6040516020016118ee9291906129aa565b6040516020818303038152906040525b915050919050565b600081600001549050919050565b6001816000016000828254019250508190555050565b600073ffffffffffffffffffffffffffffffffffffffff168273ffffffffffffffffffffffffffffffffffffffff16141561199a576040517f08c379a000000000000000000000000000000000000000000000000000000000815260040161199190612ffe565b60405180910390fd5b6119a381611b78565b156119e3576040517f08c379a00000000000000000000000000000000000000000000000000000000081526004016119da9061306a565b60405180910390fd5b6119ef60008383611be4565b6001600360008473ffffffffffffffffffffffffffffffffffffffff1673ffffffffffffffffffffffffffffffffffffffff1681526020019081526020016000206000828254611a3f9190612b67565b92505081905550816002600083815260200190815260200160002060006101000a81548173ffffffffffffffffffffffffffffffffffffffff021916908373ffffffffffffffffffffffffffffffffffffffff160217905550808273ffffffffffffffffffffffffffffffffffffffff16600073ffffffffffffffffffffffffffffffffffffffff167fddf252ad1be2c89b69c2b068fc378daa952ba7f163c4a11628f55a4df523b3ef60405160405180910390a4611b0060008383611be9565b5050565b611b0d82611b78565b611b4c576040517f08c379a0000000000000000000000000000000000000000000000000000000008152600401611b43906130fc565b60405180910390fd5b80600660008481526020019081526020016000209080519060200190611b73929190611f09565b505050565b60008073ffffffffffffffffffffffffffffffffffffffff166002600084815260200190815260200160002060009054906101000a900473ffffffffffffffffffffffffffffffffffffffff1673ffffffffffffffffffffffffffffffffffffffff1614159050919050565b505050565b505050565b6000611c0f8473ffffffffffffffffffffffffffffffffffffffff16611ee6565b15611d78578373ffffffffffffffffffffffffffffffffffffffff1663150b7a02611c386111bd565b8786866040518563ffffffff1660e01b8152600401611c5a9493929190613171565b602060405180830381600087803b158015611c7457600080fd5b505af1925050508015611ca557506040513d601f19601f82011682018060405250810190611ca291906131d2565b60015b611d28573d8060008114611cd5576040519150601f19603f3d011682016040523d82523d6000602084013e611cda565b606091505b50600081511415611d20576040517f08c379a0000000000000000000000000000000000000000000000000000000008152600401611d1790612f92565b60405180910390fd5b805181602001fd5b63150b7a0260e01b7bffffffffffffffffffffffffffffffffffffffffffffffffffffffff1916817bffffffffffffffffffffffffffffffffffffffffffffffffffffffff191614915050611d7d565b600190505b949350505050565b60606000821415611dcd576040518060400160405280600181526020017f30000000000000000000000000000000000000000000000000000000000000008152509050611ee1565b600082905060005b60008214611dff578080611de8906131ff565b915050600a82611df89190613277565b9150611dd5565b60008167ffffffffffffffff811115611e1b57611e1a612381565b5b6040519080825280601f01601f191660200182016040528015611e4d5781602001600182028036833780820191505090505b5090505b60008514611eda57600182611e669190612e14565b9150600a85611e7591906132a8565b6030611e819190612b67565b60f81b818381518110611e9757611e966132d9565b5b60200101907effffffffffffffffffffffffffffffffffffffffffffffffffffffffffffff1916908160001a905350600a85611ed39190613277565b9450611e51565b8093505050505b919050565b6000808273ffffffffffffffffffffffffffffffffffffffff163b119050919050565b828054611f1590612688565b90600052602060002090601f016020900481019282611f375760008555611f7e565b82601f10611f5057805160ff1916838001178555611f7e565b82800160010185558215611f7e579182015b82811115611f7d578251825591602001919060010190611f62565b5b509050611f8b9190611f8f565b5090565b5b80821115611fa8576000816000905550600101611f90565b5090565b6000604051905090565b600080fd5b600080fd5b60007fffffffff0000000000000000000000000000000000000000000000000000000082169050919050565b611ff581611fc0565b811461200057600080fd5b50565b60008135905061201281611fec565b92915050565b60006020828403121561202e5761202d611fb6565b5b600061203c84828501612003565b91505092915050565b60008115159050919050565b61205a81612045565b82525050565b60006020820190506120756000830184612051565b92915050565b600081519050919050565b600082825260208201905092915050565b60005b838110156120b557808201518184015260208101905061209a565b838111156120c4576000848401525b50505050565b6000601f19601f8301169050919050565b60006120e68261207b565b6120f08185612086565b9350612100818560208601612097565b612109816120ca565b840191505092915050565b6000602082019050818103600083015261212e81846120db565b905092915050565b6000819050919050565b61214981612136565b811461215457600080fd5b50565b60008135905061216681612140565b92915050565b60006020828403121561218257612181611fb6565b5b600061219084828501612157565b91505092915050565b600073ffffffffffffffffffffffffffffffffffffffff82169050919050565b60006121c482612199565b9050919050565b6121d4816121b9565b82525050565b60006020820190506121ef60008301846121cb565b92915050565b6121fe816121b9565b811461220957600080fd5b50565b60008135905061221b816121f5565b92915050565b6000806040838503121561223857612237611fb6565b5b60006122468582860161220c565b925050602061225785828601612157565b9150509250929050565b60008060006060848603121561227a57612279611fb6565b5b60006122888682870161220c565b93505060206122998682870161220c565b92505060406122aa86828701612157565b9150509250925092565b6122bd81612136565b82525050565b60006020820190506122d860008301846122b4565b92915050565b6000602082840312156122f4576122f3611fb6565b5b60006123028482850161220c565b91505092915050565b61231481612045565b811461231f57600080fd5b50565b6000813590506123318161230b565b92915050565b6000806040838503121561234e5761234d611fb6565b5b600061235c8582860161220c565b925050602061236d85828601612322565b9150509250929050565b600080fd5b600080fd5b7f4e487b7100000000000000000000000000000000000000000000000000000000600052604160045260246000fd5b6123b9826120ca565b810181811067ffffffffffffffff821117156123d8576123d7612381565b5b80604052505050565b60006123eb611fac565b90506123f782826123b0565b919050565b600067ffffffffffffffff82111561241757612416612381565b5b612420826120ca565b9050602081019050919050565b82818337600083830152505050565b600061244f61244a846123fc565b6123e1565b90508281526020810184848401111561246b5761246a61237c565b5b61247684828561242d565b509392505050565b600082601f83011261249357612492612377565b5b81356124a384826020860161243c565b91505092915050565b600080600080608085870312156124c6576124c5611fb6565b5b60006124d48782880161220c565b94505060206124e58782880161220c565b93505060406124f687828801612157565b925050606085013567ffffffffffffffff81111561251757612516611fbb565b5b6125238782880161247e565b91505092959194509250565b6000806040838503121561254657612545611fb6565b5b60006125548582860161220c565b92505060206125658582860161220c565b9150509250929050565b600067ffffffffffffffff82111561258a57612589612381565b5b612593826120ca565b9050602081019050919050565b60006125b36125ae8461256f565b6123e1565b9050828152602081018484840111156125cf576125ce61237c565b5b6125da84828561242d565b509392505050565b600082601f8301126125f7576125f6612377565b5b81356126078482602086016125a0565b91505092915050565b60006020828403121561262657612625611fb6565b5b600082013567ffffffffffffffff81111561264457612643611fbb565b5b612650848285016125e2565b91505092915050565b7f4e487b7100000000000000000000000000000000000000000000000000000000600052602260045260246000fd5b600060028204905060018216806126a057607f821691505b602082108114156126b4576126b3612659565b5b50919050565b7f4552433732313a20617070726f76616c20746f2063757272656e74206f776e6560008201527f7200000000000000000000000000000000000000000000000000000000000000602082015250565b6000612716602183612086565b9150612721826126ba565b604082019050919050565b6000602082019050818103600083015261274581612709565b9050919050565b7f4552433732313a20617070726f76652063616c6c6572206973206e6f7420746f60008201527f6b656e206f776e6572206e6f7220617070726f76656420666f7220616c6c0000602082015250565b60006127a8603e83612086565b91506127b38261274c565b604082019050919050565b600060208201905081810360008301526127d78161279b565b9050919050565b7f4552433732313a2063616c6c6572206973206e6f7420746f6b656e206f776e6560008201527f72206e6f7220617070726f766564000000000000000000000000000000000000602082015250565b600061283a602e83612086565b9150612845826127de565b604082019050919050565b600060208201905081810360008301526128698161282d565b9050919050565b7f4552433732313a20696e76616c696420746f6b656e2049440000000000000000600082015250565b60006128a6601883612086565b91506128b182612870565b602082019050919050565b600060208201905081810360008301526128d581612899565b9050919050565b7f4552433732313a2061646472657373207a65726f206973206e6f74206120766160008201527f6c6964206f776e65720000000000000000000000000000000000000000000000602082015250565b6000612938602983612086565b9150612943826128dc565b604082019050919050565b600060208201905081810360008301526129678161292b565b9050919050565b600081905092915050565b60006129848261207b565b61298e818561296e565b935061299e818560208601612097565b80840191505092915050565b60006129b68285612979565b91506129c28284612979565b91508190509392505050565b7f4f776e61626c653a206e6577206f776e657220697320746865207a65726f206160008201527f6464726573730000000000000000000000000000000000000000000000000000602082015250565b6000612a2a602683612086565b9150612a35826129ce565b604082019050919050565b60006020820190508181036000830152612a5981612a1d565b9050919050565b7f4574686572207061696420697320696e636f7272656374000000000000000000600082015250565b6000612a96601783612086565b9150612aa182612a60565b602082019050919050565b60006020820190508181036000830152612ac581612a89565b9050919050565b7f596f752068617665206578636565646564206d696e74696e67206c696d697400600082015250565b6000612b02601f83612086565b9150612b0d82612acc565b602082019050919050565b60006020820190508181036000830152612b3181612af5565b9050919050565b7f4e487b7100000000000000000000000000000000000000000000000000000000600052601160045260246000fd5b6000612b7282612136565b9150612b7d83612136565b9250827fffffffffffffffffffffffffffffffffffffffffffffffffffffffffffffffff03821115612bb257612bb1612b38565b5b828201905092915050565b7f596f752068617665206578636565646564204d617820537570706c7900000000600082015250565b6000612bf3601c83612086565b9150612bfe82612bbd565b602082019050919050565b60006020820190508181036000830152612c2281612be6565b9050919050565b6000612c358284612979565b915081905092915050565b7f54686973204e46542068617320616c7265616479206265656e206d696e746564600082015250565b6000612c76602083612086565b9150612c8182612c40565b602082019050919050565b60006020820190508181036000830152612ca581612c69565b9050919050565b600060ff82169050919050565b6000612cc482612cac565b9150612ccf83612cac565b92508260ff03821115612ce557612ce4612b38565b5b828201905092915050565b7f4552433732313a207472616e736665722066726f6d20696e636f72726563742060008201527f6f776e6572000000000000000000000000000000000000000000000000000000602082015250565b6000612d4c602583612086565b9150612d5782612cf0565b604082019050919050565b60006020820190508181036000830152612d7b81612d3f565b9050919050565b7f4552433732313a207472616e7366657220746f20746865207a65726f2061646460008201527f7265737300000000000000000000000000000000000000000000000000000000602082015250565b6000612dde602483612086565b9150612de982612d82565b604082019050919050565b60006020820190508181036000830152612e0d81612dd1565b9050919050565b6000612e1f82612136565b9150612e2a83612136565b925082821015612e3d57612e3c612b38565b5b828203905092915050565b7f4f776e61626c653a2063616c6c6572206973206e6f7420746865206f776e6572600082015250565b6000612e7e602083612086565b9150612e8982612e48565b602082019050919050565b60006020820190508181036000830152612ead81612e71565b9050919050565b7f4552433732313a20617070726f766520746f2063616c6c657200000000000000600082015250565b6000612eea601983612086565b9150612ef582612eb4565b602082019050919050565b60006020820190508181036000830152612f1981612edd565b9050919050565b7f4552433732313a207472616e7366657220746f206e6f6e20455243373231526560008201527f63656976657220696d706c656d656e7465720000000000000000000000000000602082015250565b6000612f7c603283612086565b9150612f8782612f20565b604082019050919050565b60006020820190508181036000830152612fab81612f6f565b9050919050565b7f4552433732313a206d696e7420746f20746865207a65726f2061646472657373600082015250565b6000612fe8602083612086565b9150612ff382612fb2565b602082019050919050565b6000602082019050818103600083015261301781612fdb565b9050919050565b7f4552433732313a20746f6b656e20616c7265616479206d696e74656400000000600082015250565b6000613054601c83612086565b915061305f8261301e565b602082019050919050565b6000602082019050818103600083015261308381613047565b9050919050565b7f45524337323155524953746f726167653a2055524920736574206f66206e6f6e60008201527f6578697374656e7420746f6b656e000000000000000000000000000000000000602082015250565b60006130e6602e83612086565b91506130f18261308a565b604082019050919050565b60006020820190508181036000830152613115816130d9565b9050919050565b600081519050919050565b600082825260208201905092915050565b60006131438261311c565b61314d8185613127565b935061315d818560208601612097565b613166816120ca565b840191505092915050565b600060808201905061318660008301876121cb565b61319360208301866121cb565b6131a060408301856122b4565b81810360608301526131b28184613138565b905095945050505050565b6000815190506131cc81611fec565b92915050565b6000602082840312156131e8576131e7611fb6565b5b60006131f6848285016131bd565b91505092915050565b600061320a82612136565b91507fffffffffffffffffffffffffffffffffffffffffffffffffffffffffffffffff82141561323d5761323c612b38565b5b600182019050919050565b7f4e487b7100000000000000000000000000000000000000000000000000000000600052601260045260246000fd5b600061328282612136565b915061328d83612136565b92508261329d5761329c613248565b5b828204905092915050565b60006132b382612136565b91506132be83612136565b9250826132ce576132cd613248565b5b828206905092915050565b7f4e487b7100000000000000000000000000000000000000000000000000000000600052603260045260246000fdfea2646970667358221220446161b2261c4fc1e8a425125b4731b57b3c99549f9cd7bdead6115992f0434a64736f6c63430008090033",
  "linkReferences": {},
  "deployedLinkReferences": {}
}